{
  "_format": "hh-sol-artifact-1",
  "contractName": "EtherCoinFlip",
  "sourceName": "contracts/EtherCoinFlip.sol",
  "abi": [
    {
      "inputs": [],
      "stateMutability": "nonpayable",
      "type": "constructor"
    },
    {
      "anonymous": false,
      "inputs": [
        {
          "indexed": true,
          "internalType": "address",
          "name": "winner",
          "type": "address"
        }
      ],
      "name": "EtherCoinFinishedFlip",
      "type": "event"
    },
    {
      "anonymous": false,
      "inputs": [
        {
          "indexed": true,
          "internalType": "uint256",
          "name": "theCoinFlipID",
          "type": "uint256"
        }
      ],
      "name": "EtherCoinFlipped",
      "type": "event"
    },
    {
      "inputs": [
        {
          "internalType": "uint256",
          "name": "coinFlipID",
          "type": "uint256"
        }
      ],
      "name": "endCoinFlip",
      "outputs": [],
      "stateMutability": "payable",
      "type": "function"
    },
    {
      "inputs": [],
      "name": "getRandomNumber",
      "outputs": [
        {
          "internalType": "bytes32",
          "name": "requestId",
          "type": "bytes32"
        }
      ],
      "stateMutability": "nonpayable",
      "type": "function"
    },
    {
      "inputs": [],
      "name": "newCoinFlip",
      "outputs": [
        {
          "internalType": "uint256",
          "name": "coinFlipID",
          "type": "uint256"
        }
      ],
      "stateMutability": "payable",
      "type": "function"
    },
    {
      "inputs": [],
      "name": "randomResult",
      "outputs": [
        {
          "internalType": "uint256",
          "name": "",
          "type": "uint256"
        }
      ],
      "stateMutability": "view",
      "type": "function"
    },
    {
      "inputs": [
        {
          "internalType": "bytes32",
          "name": "requestId",
          "type": "bytes32"
        },
        {
          "internalType": "uint256",
          "name": "randomness",
          "type": "uint256"
        }
      ],
      "name": "rawFulfillRandomness",
      "outputs": [],
      "stateMutability": "nonpayable",
      "type": "function"
    }
  ],
  "bytecode": "0x60c060405261012c60045534801561001657600080fd5b5073b3dccb4cf7a26f6cf6b120cf5a73875b7bbc655b7301be23585060835e02b77ef475b0cc51aa1e07098173ffffffffffffffffffffffffffffffffffffffff1660a08173ffffffffffffffffffffffffffffffffffffffff1660601b815250508073ffffffffffffffffffffffffffffffffffffffff1660808173ffffffffffffffffffffffffffffffffffffffff1660601b8152505050507f2ed0feb3e7fd2022120aa84fab1945545a9f2ffc9076fd6156fa96eaff4c131160001b60018190555067016345785d8a000060028190555060805160601c60a05160601c6110646101236000396000818161035301526108a8015260008181610762015261086c01526110646000f3fe60806040526004361061004a5760003560e01c806336543f241461004f57806342619f661461006d57806394985ddd14610098578063aa341ee3146100c1578063dbdff2c1146100dd575b600080fd5b610057610108565b6040516100649190610dc9565b60405180910390f35b34801561007957600080fd5b5061008261034b565b60405161008f9190610dc9565b60405180910390f35b3480156100a457600080fd5b506100bf60048036038101906100ba9190610ab3565b610351565b005b6100db60048036038101906100d69190610aef565b6103ed565b005b3480156100e957600080fd5b506100f261075b565b6040516100ff9190610d00565b60405180910390f35b60008033905060008190506004600081548092919061012690610eec565b9190505592506040518061010001604052808481526020018273ffffffffffffffffffffffffffffffffffffffff1681526020013481526020018273ffffffffffffffffffffffffffffffffffffffff168152602001348152602001600081526020018273ffffffffffffffffffffffffffffffffffffffff1681526020018273ffffffffffffffffffffffffffffffffffffffff16815250600560008581526020019081526020016000206000820151816000015560208201518160010160006101000a81548173ffffffffffffffffffffffffffffffffffffffff021916908373ffffffffffffffffffffffffffffffffffffffff1602179055506040820151816002015560608201518160030160006101000a81548173ffffffffffffffffffffffffffffffffffffffff021916908373ffffffffffffffffffffffffffffffffffffffff1602179055506080820151816004015560a0820151816005015560c08201518160060160006101000a81548173ffffffffffffffffffffffffffffffffffffffff021916908373ffffffffffffffffffffffffffffffffffffffff16021790555060e08201518160070160006101000a81548173ffffffffffffffffffffffffffffffffffffffff021916908373ffffffffffffffffffffffffffffffffffffffff160217905550905050827f5c155eb0dda2514ed16f46affaf3d6cc4a46926388738dd8a14e4af2720378b860405160405180910390a2505090565b60035481565b7f000000000000000000000000000000000000000000000000000000000000000073ffffffffffffffffffffffffffffffffffffffff163373ffffffffffffffffffffffffffffffffffffffff16146103df576040517f08c379a00000000000000000000000000000000000000000000000000000000081526004016103d690610da9565b60405180910390fd5b6103e9828261085d565b5050565b60006005600083815260200190815260200160002060405180610100016040529081600082015481526020016001820160009054906101000a900473ffffffffffffffffffffffffffffffffffffffff1673ffffffffffffffffffffffffffffffffffffffff1673ffffffffffffffffffffffffffffffffffffffff168152602001600282015481526020016003820160009054906101000a900473ffffffffffffffffffffffffffffffffffffffff1673ffffffffffffffffffffffffffffffffffffffff1673ffffffffffffffffffffffffffffffffffffffff16815260200160048201548152602001600582015481526020016006820160009054906101000a900473ffffffffffffffffffffffffffffffffffffffff1673ffffffffffffffffffffffffffffffffffffffff1673ffffffffffffffffffffffffffffffffffffffff1681526020016007820160009054906101000a900473ffffffffffffffffffffffffffffffffffffffff1673ffffffffffffffffffffffffffffffffffffffff1673ffffffffffffffffffffffffffffffffffffffff1681525050905060003390506000819050826000015184146105aa57600080fd5b826040015134146105ba57600080fd5b80836060019073ffffffffffffffffffffffffffffffffffffffff16908173ffffffffffffffffffffffffffffffffffffffff168152505034836080018181525050826080015183604001516106109190610e11565b8360a001818152505061062a61062461075b565b8561085d565b6000600260035461063b9190610f49565b14156106825782602001518360c0019073ffffffffffffffffffffffffffffffffffffffff16908173ffffffffffffffffffffffffffffffffffffffff16815250506106bf565b82606001518360c0019073ffffffffffffffffffffffffffffffffffffffff16908173ffffffffffffffffffffffffffffffffffffffff16815250505b8260c0015173ffffffffffffffffffffffffffffffffffffffff166108fc8460a001519081150290604051600060405180830381858888f1935050505015801561070d573d6000803e3d6000fd5b508260c0015173ffffffffffffffffffffffffffffffffffffffff167f4dc580060e6c512e35a26f314530868524da58d2a565b2601e1baf039e0e6d8160405160405180910390a250505050565b60006002547f000000000000000000000000000000000000000000000000000000000000000073ffffffffffffffffffffffffffffffffffffffff166370a08231306040518263ffffffff1660e01b81526004016107b99190610ca7565b60206040518083038186803b1580156107d157600080fd5b505afa1580156107e5573d6000803e3d6000fd5b505050506040513d601f19601f820116820180604052508101906108099190610b18565b101561084a576040517f08c379a000000000000000000000000000000000000000000000000000000000815260040161084190610d89565b60405180910390fd5b610858600154600254610868565b905090565b806003819055505050565b60007f000000000000000000000000000000000000000000000000000000000000000073ffffffffffffffffffffffffffffffffffffffff16634000aea07f0000000000000000000000000000000000000000000000000000000000000000848660006040516020016108dc929190610d1b565b6040516020818303038152906040526040518463ffffffff1660e01b815260040161090993929190610cc2565b602060405180830381600087803b15801561092357600080fd5b505af1158015610937573d6000803e3d6000fd5b505050506040513d601f19601f8201168201806040525081019061095b9190610a8a565b50600061097d84600030600080898152602001908152602001600020546109c7565b905060016000808681526020019081526020016000205461099e9190610e11565b600080868152602001908152602001600020819055506109be8482610a03565b91505092915050565b6000848484846040516020016109e09493929190610d44565b6040516020818303038152906040528051906020012060001c9050949350505050565b60008282604051602001610a18929190610c7b565b60405160208183030381529060405280519060200120905092915050565b600081519050610a4581610fe9565b92915050565b600081359050610a5a81611000565b92915050565b600081359050610a6f81611017565b92915050565b600081519050610a8481611017565b92915050565b600060208284031215610a9c57600080fd5b6000610aaa84828501610a36565b91505092915050565b60008060408385031215610ac657600080fd5b6000610ad485828601610a4b565b9250506020610ae585828601610a60565b9150509250929050565b600060208284031215610b0157600080fd5b6000610b0f84828501610a60565b91505092915050565b600060208284031215610b2a57600080fd5b6000610b3884828501610a75565b91505092915050565b610b4a81610e67565b82525050565b610b5981610e85565b82525050565b610b70610b6b82610e85565b610f35565b82525050565b6000610b8182610de4565b610b8b8185610def565b9350610b9b818560208601610eb9565b610ba481610fd8565b840191505092915050565b6000610bbc602b83610e00565b91507f4e6f7420656e6f756768204c494e4b202d2066696c6c20636f6e74726163742060008301527f77697468206661756365740000000000000000000000000000000000000000006020830152604082019050919050565b6000610c22601f83610e00565b91507f4f6e6c7920565246436f6f7264696e61746f722063616e2066756c66696c6c006000830152602082019050919050565b610c5e81610eaf565b82525050565b610c75610c7082610eaf565b610f3f565b82525050565b6000610c878285610b5f565b602082019150610c978284610c64565b6020820191508190509392505050565b6000602082019050610cbc6000830184610b41565b92915050565b6000606082019050610cd76000830186610b41565b610ce46020830185610c55565b8181036040830152610cf68184610b76565b9050949350505050565b6000602082019050610d156000830184610b50565b92915050565b6000604082019050610d306000830185610b50565b610d3d6020830184610c55565b9392505050565b6000608082019050610d596000830187610b50565b610d666020830186610c55565b610d736040830185610b41565b610d806060830184610c55565b95945050505050565b60006020820190508181036000830152610da281610baf565b9050919050565b60006020820190508181036000830152610dc281610c15565b9050919050565b6000602082019050610dde6000830184610c55565b92915050565b600081519050919050565b600082825260208201905092915050565b600082825260208201905092915050565b6000610e1c82610eaf565b9150610e2783610eaf565b9250827fffffffffffffffffffffffffffffffffffffffffffffffffffffffffffffffff03821115610e5c57610e5b610f7a565b5b828201905092915050565b6000610e7282610e8f565b9050919050565b60008115159050919050565b6000819050919050565b600073ffffffffffffffffffffffffffffffffffffffff82169050919050565b6000819050919050565b60005b83811015610ed7578082015181840152602081019050610ebc565b83811115610ee6576000848401525b50505050565b6000610ef782610eaf565b91507fffffffffffffffffffffffffffffffffffffffffffffffffffffffffffffffff821415610f2a57610f29610f7a565b5b600182019050919050565b6000819050919050565b6000819050919050565b6000610f5482610eaf565b9150610f5f83610eaf565b925082610f6f57610f6e610fa9565b5b828206905092915050565b7f4e487b7100000000000000000000000000000000000000000000000000000000600052601160045260246000fd5b7f4e487b7100000000000000000000000000000000000000000000000000000000600052601260045260246000fd5b6000601f19601f8301169050919050565b610ff281610e79565b8114610ffd57600080fd5b50565b61100981610e85565b811461101457600080fd5b50565b61102081610eaf565b811461102b57600080fd5b5056fea26469706673582212200a01eefd49177a4e653af0bbec87d884d34ca28bafb323f6becdbc233a2df4db64736f6c63430008000033",
  "linkReferences": {},
  "deployedLinkReferences": {}
}