{
  "_format": "hh-sol-artifact-1",
  "contractName": "EtherCoinFlip",
  "sourceName": "contracts/EtherCoinFlip.sol",
  "abi": [
    {
      "anonymous": false,
      "inputs": [
        {
          "indexed": true,
          "internalType": "address",
          "name": "winner",
          "type": "address"
        }
      ],
      "name": "EtherCoinFinishedFlip",
      "type": "event"
    },
    {
      "anonymous": false,
      "inputs": [
        {
          "indexed": true,
          "internalType": "uint256",
          "name": "theCoinFlipID",
          "type": "uint256"
        }
      ],
      "name": "EtherCoinFlipped",
      "type": "event"
    },
    {
      "inputs": [
        {
          "internalType": "uint256",
          "name": "coinFlipID",
          "type": "uint256"
        }
      ],
      "name": "endPureCoinFlip",
      "outputs": [],
      "stateMutability": "payable",
      "type": "function"
    },
    {
      "inputs": [],
      "name": "newPureCoinFlip",
      "outputs": [
        {
          "internalType": "uint256",
          "name": "coinFlipID",
          "type": "uint256"
        }
      ],
      "stateMutability": "payable",
      "type": "function"
    }
  ],
  "bytecode": "0x608060405261012c60015534801561001657600080fd5b50610609806100266000396000f3fe6080604052600436106100295760003560e01c80634a91b2d91461002e578063e4cb53f01461005c575b600080fd5b61005a6004803603602081101561004457600080fd5b810190808035906020019092919050505061007a565b005b6100646103b2565b6040518082815260200191505060405180910390f35b80811461008657600080fd5b6000600260008381526020019081526020016000206040518060e00160405290816000820160009054906101000a900473ffffffffffffffffffffffffffffffffffffffff1673ffffffffffffffffffffffffffffffffffffffff1673ffffffffffffffffffffffffffffffffffffffff168152602001600182015481526020016002820160009054906101000a900473ffffffffffffffffffffffffffffffffffffffff1673ffffffffffffffffffffffffffffffffffffffff1673ffffffffffffffffffffffffffffffffffffffff16815260200160038201548152602001600482015481526020016005820160009054906101000a900473ffffffffffffffffffffffffffffffffffffffff1673ffffffffffffffffffffffffffffffffffffffff1673ffffffffffffffffffffffffffffffffffffffff1681526020016006820160009054906101000a900473ffffffffffffffffffffffffffffffffffffffff1673ffffffffffffffffffffffffffffffffffffffff1673ffffffffffffffffffffffffffffffffffffffff1681525050905033816040019073ffffffffffffffffffffffffffffffffffffffff16908173ffffffffffffffffffffffffffffffffffffffff1681525050348160600181815250508060600151816020015101816080018181525050600060013a4544344243010101010101905060006002828161029257fe5b0614156102da5781600001518260a0019073ffffffffffffffffffffffffffffffffffffffff16908173ffffffffffffffffffffffffffffffffffffffff1681525050610317565b81604001518260a0019073ffffffffffffffffffffffffffffffffffffffff16908173ffffffffffffffffffffffffffffffffffffffff16815250505b8160a0015173ffffffffffffffffffffffffffffffffffffffff166108fc83608001519081150290604051600060405180830381858888f19350505050158015610365573d6000803e3d6000fd5b508160a0015173ffffffffffffffffffffffffffffffffffffffff167f4dc580060e6c512e35a26f314530868524da58d2a565b2601e1baf039e0e6d8160405160405180910390a2505050565b6000600160008154809291906001019190505590506040518060e001604052803373ffffffffffffffffffffffffffffffffffffffff1681526020013481526020013373ffffffffffffffffffffffffffffffffffffffff168152602001348152602001600081526020013373ffffffffffffffffffffffffffffffffffffffff1681526020013373ffffffffffffffffffffffffffffffffffffffff168152506002600083815260200190815260200160002060008201518160000160006101000a81548173ffffffffffffffffffffffffffffffffffffffff021916908373ffffffffffffffffffffffffffffffffffffffff1602179055506020820151816001015560408201518160020160006101000a81548173ffffffffffffffffffffffffffffffffffffffff021916908373ffffffffffffffffffffffffffffffffffffffff160217905550606082015181600301556080820151816004015560a08201518160050160006101000a81548173ffffffffffffffffffffffffffffffffffffffff021916908373ffffffffffffffffffffffffffffffffffffffff16021790555060c08201518160060160006101000a81548173ffffffffffffffffffffffffffffffffffffffff021916908373ffffffffffffffffffffffffffffffffffffffff160217905550905050807f5c155eb0dda2514ed16f46affaf3d6cc4a46926388738dd8a14e4af2720378b860405160405180910390a29056fea26469706673582212209f18d841c871ac7f4ffb5f9545f1d3a135a092c65042f700f4826607d5858d4464736f6c63430007060033",
  "linkReferences": {},
  "deployedLinkReferences": {}
}