{
  "_format": "hh-sol-artifact-1",
  "contractName": "EtherCoinFlip",
  "sourceName": "contracts/EtherCoinFlip.sol",
  "abi": [
    {
      "anonymous": false,
      "inputs": [
        {
          "indexed": true,
          "internalType": "address",
          "name": "winner",
          "type": "address"
        }
      ],
      "name": "EtherCoinFinishedFlip",
      "type": "event"
    },
    {
      "anonymous": false,
      "inputs": [
        {
          "indexed": true,
          "internalType": "uint256",
          "name": "theCoinFlipID",
          "type": "uint256"
        }
      ],
      "name": "EtherCoinFlipped",
      "type": "event"
    },
    {
      "inputs": [
        {
          "internalType": "uint256",
          "name": "coinFlipID",
          "type": "uint256"
        }
      ],
      "name": "endCoinFlip",
      "outputs": [],
      "stateMutability": "payable",
      "type": "function"
    },
    {
      "inputs": [
        {
          "internalType": "uint256",
          "name": "coinFlipID",
          "type": "uint256"
        }
      ],
      "name": "endPureCoinFlip",
      "outputs": [],
      "stateMutability": "payable",
      "type": "function"
    },
    {
      "inputs": [
        {
          "internalType": "uint256",
          "name": "startingETHWager",
          "type": "uint256"
        }
      ],
      "name": "newCoinFlip",
      "outputs": [
        {
          "internalType": "uint256",
          "name": "coinFlipID",
          "type": "uint256"
        }
      ],
      "stateMutability": "payable",
      "type": "function"
    },
    {
      "inputs": [
        {
          "internalType": "uint256",
          "name": "startingETHWager",
          "type": "uint256"
        }
      ],
      "name": "newPureCoinFlip",
      "outputs": [
        {
          "internalType": "uint256",
          "name": "coinFlipID",
          "type": "uint256"
        }
      ],
      "stateMutability": "payable",
      "type": "function"
    }
  ],
  "bytecode": "0x608060405261012c60015534801561001657600080fd5b50610c20806100266000396000f3fe60806040526004361061003f5760003560e01c806316276fe5146100445780634a91b2d914610086578063aa341ee3146100b4578063c830aac8146100e2575b600080fd5b6100706004803603602081101561005a57600080fd5b8101908080359060200190929190505050610124565b6040518082815260200191505060405180910390f35b6100b26004803603602081101561009c57600080fd5b8101908080359060200190929190505050610347565b005b6100e0600480360360208110156100ca57600080fd5b810190808035906020019092919050505061068f565b005b61010e600480360360208110156100f857600080fd5b81019080803590602001909291905050506109c7565b6040518082815260200191505060405180910390f35b6000600160008154809291906001019190505590506040518060e001604052803373ffffffffffffffffffffffffffffffffffffffff1681526020018381526020013373ffffffffffffffffffffffffffffffffffffffff168152602001348152602001600081526020013373ffffffffffffffffffffffffffffffffffffffff1681526020013373ffffffffffffffffffffffffffffffffffffffff168152506002600083815260200190815260200160002060008201518160000160006101000a81548173ffffffffffffffffffffffffffffffffffffffff021916908373ffffffffffffffffffffffffffffffffffffffff1602179055506020820151816001015560408201518160020160006101000a81548173ffffffffffffffffffffffffffffffffffffffff021916908373ffffffffffffffffffffffffffffffffffffffff160217905550606082015181600301556080820151816004015560a08201518160050160006101000a81548173ffffffffffffffffffffffffffffffffffffffff021916908373ffffffffffffffffffffffffffffffffffffffff16021790555060c08201518160060160006101000a81548173ffffffffffffffffffffffffffffffffffffffff021916908373ffffffffffffffffffffffffffffffffffffffff160217905550905050807f5c155eb0dda2514ed16f46affaf3d6cc4a46926388738dd8a14e4af2720378b860405160405180910390a2919050565b80811461035357600080fd5b6000600260008381526020019081526020016000206040518060e00160405290816000820160009054906101000a900473ffffffffffffffffffffffffffffffffffffffff1673ffffffffffffffffffffffffffffffffffffffff1673ffffffffffffffffffffffffffffffffffffffff168152602001600182015481526020016002820160009054906101000a900473ffffffffffffffffffffffffffffffffffffffff1673ffffffffffffffffffffffffffffffffffffffff1673ffffffffffffffffffffffffffffffffffffffff16815260200160038201548152602001600482015481526020016005820160009054906101000a900473ffffffffffffffffffffffffffffffffffffffff1673ffffffffffffffffffffffffffffffffffffffff1673ffffffffffffffffffffffffffffffffffffffff1681526020016006820160009054906101000a900473ffffffffffffffffffffffffffffffffffffffff1673ffffffffffffffffffffffffffffffffffffffff1673ffffffffffffffffffffffffffffffffffffffff16815250509050806020015134146104fb57600080fd5b33816040019073ffffffffffffffffffffffffffffffffffffffff16908173ffffffffffffffffffffffffffffffffffffffff1681525050348160600181815250508060600151816020015101816080018181525050600060013a4544344243010101010101905060006002828161056f57fe5b0614156105b75781600001518260a0019073ffffffffffffffffffffffffffffffffffffffff16908173ffffffffffffffffffffffffffffffffffffffff16815250506105f4565b81604001518260a0019073ffffffffffffffffffffffffffffffffffffffff16908173ffffffffffffffffffffffffffffffffffffffff16815250505b8160a0015173ffffffffffffffffffffffffffffffffffffffff166108fc83608001519081150290604051600060405180830381858888f19350505050158015610642573d6000803e3d6000fd5b508160a0015173ffffffffffffffffffffffffffffffffffffffff167f4dc580060e6c512e35a26f314530868524da58d2a565b2601e1baf039e0e6d8160405160405180910390a2505050565b80811461069b57600080fd5b6000600260008381526020019081526020016000206040518060e00160405290816000820160009054906101000a900473ffffffffffffffffffffffffffffffffffffffff1673ffffffffffffffffffffffffffffffffffffffff1673ffffffffffffffffffffffffffffffffffffffff168152602001600182015481526020016002820160009054906101000a900473ffffffffffffffffffffffffffffffffffffffff1673ffffffffffffffffffffffffffffffffffffffff1673ffffffffffffffffffffffffffffffffffffffff16815260200160038201548152602001600482015481526020016005820160009054906101000a900473ffffffffffffffffffffffffffffffffffffffff1673ffffffffffffffffffffffffffffffffffffffff1673ffffffffffffffffffffffffffffffffffffffff1681526020016006820160009054906101000a900473ffffffffffffffffffffffffffffffffffffffff1673ffffffffffffffffffffffffffffffffffffffff1673ffffffffffffffffffffffffffffffffffffffff1681525050905033816040019073ffffffffffffffffffffffffffffffffffffffff16908173ffffffffffffffffffffffffffffffffffffffff1681525050348160600181815250508060600151816020015101816080018181525050600060013a454434424301010101010190506000600282816108a757fe5b0614156108ef5781600001518260a0019073ffffffffffffffffffffffffffffffffffffffff16908173ffffffffffffffffffffffffffffffffffffffff168152505061092c565b81604001518260a0019073ffffffffffffffffffffffffffffffffffffffff16908173ffffffffffffffffffffffffffffffffffffffff16815250505b8160a0015173ffffffffffffffffffffffffffffffffffffffff166108fc83608001519081150290604051600060405180830381858888f1935050505015801561097a573d6000803e3d6000fd5b508160a0015173ffffffffffffffffffffffffffffffffffffffff167f4dc580060e6c512e35a26f314530868524da58d2a565b2601e1baf039e0e6d8160405160405180910390a2505050565b6000600160008154809291906001019190505590506040518060e001604052803373ffffffffffffffffffffffffffffffffffffffff1681526020018381526020013373ffffffffffffffffffffffffffffffffffffffff168152602001348152602001600081526020013373ffffffffffffffffffffffffffffffffffffffff1681526020013373ffffffffffffffffffffffffffffffffffffffff168152506002600083815260200190815260200160002060008201518160000160006101000a81548173ffffffffffffffffffffffffffffffffffffffff021916908373ffffffffffffffffffffffffffffffffffffffff1602179055506020820151816001015560408201518160020160006101000a81548173ffffffffffffffffffffffffffffffffffffffff021916908373ffffffffffffffffffffffffffffffffffffffff160217905550606082015181600301556080820151816004015560a08201518160050160006101000a81548173ffffffffffffffffffffffffffffffffffffffff021916908373ffffffffffffffffffffffffffffffffffffffff16021790555060c08201518160060160006101000a81548173ffffffffffffffffffffffffffffffffffffffff021916908373ffffffffffffffffffffffffffffffffffffffff160217905550905050807f5c155eb0dda2514ed16f46affaf3d6cc4a46926388738dd8a14e4af2720378b860405160405180910390a291905056fea26469706673582212200cd02001bbe352dcc899d44f2aa14c0dd9a1c34a7514512149397b6b8929a86764736f6c63430007060033",
  "linkReferences": {},
  "deployedLinkReferences": {}
}